:020000040800F2
:10000000005000208D010008890100080000000058
:10001000890100088901000889010008000000002A
:10002000000000000000000000000000890100083E
:10003000890100080000000089010008890100080A
:100040008901000889010008890100088901000868
:100050008901000889010008890100088901000858
:100060008901000889010008890100088901000848
:100070008901000889010008890100088901000838
:100080008901000889010008890100088901000828
:100090008901000889010008890100088901000818
:1000A0008901000889010008890100088901000808
:1000B00089010008890100088901000889010008F8
:1000C00089010008890100088901000889010008E8
:1000D00089010008890100088901000889010008D8
:1000E00089010008890100088901000889010008C8
:1000F00089010008890100088901000889010008B8
:1001000089010008890100088901000889010008A7
:100110008901000889010008890100088901000897
:100120008901000889010008890100088901000887
:100130008901000889010008890100088901000877
:100140008901000889010008890100087916000862
:100150008901000889010008890100088901000857
:100160008901000889010008890100088901000847
:100170008901000889010008890100088901000837
:100180008901000889010008FEE70000684620F0A8
:1001900007018D4601B500230A4A0B499818884289
:1001A00004D20A49585898500433F5E7084B094AD5
:1001B000934203D2002043F8040BF8E700F00CF858
:1001C000FEE700BF0000002038000020F8370008DC
:1001D00038000020401C00202DE9F743002000F0EB
:1001E00061FF002001F008F9012001F09DF8684648
:1001F00001F05BFE002401238DF805408DF80430EA
:100200008DF80640B5490A196058958802AE0583F5
:100210006946083446F8085D01F004FE182CF1D157
:100220000027AF4CE31938599A8802A9028341F894
:10023000082D0837694601F0F5FD302FF1D1002671
:10024000A84DAF197059BC8802AB44836946083683
:1002500043F8084D01F0E6FD182EF1D1A24D082615
:10026000284669460096802401F0DCFD2E839F4DD0
:10027000DFF87C8208264FF020094FF40057A8F8D9
:100280001A9001206F836E8301F0D8F8A8F81890B7
:1002900001202F832E8301F0D1F8013CE7D12046C5
:1002A0008F4A131881589D88083030284D83F7D124
:1002B000012001F0C3F80027894EF019BC5982884B
:1002C0000837302F2283F7D1012001F0B7F800253D
:1002D00001218DF804508DF80710804B5F1902AC96
:1002E000BE88E85844F8086D6946083501F09AFD63
:1002F000182DF2D100257A48421902A9938828586E
:1003000041F8083D0835694601F08CFD302DF2D1E9
:100310000027744EF41902A8A588694640F8085DC4
:10032000B859083701F07EFD182FF2D1704F6420C4
:1003300001F022F83A6902F0010501F0ACF9C6B209
:1003400016B93B69D9070BD53DB18020012101F0D9
:1003500009FE8020002101F005FE002001F0A2F935
:10036000002000F02FFB002000F024F9B6B960490E
:100370000C69E20770D45F480778422F6CD15E4A5F
:100380001678002E68D001F0C1FC0120002100F099
:10039000DFFF5A4BDF78082F46D103E0102000F032
:1003A000DDFA59E06FF00700012101F0CFFD6FF099
:1003B0008000012101F0D6FD4FF0FF30012101F056
:1003C000DDFD4FF0FF30012101F0E4FD4FF0FF3083
:1003D000002101F0BBFD4FF0FF30002101F0C2FD14
:1003E0004FF0FF30002101F0C9FD4FF0FF30002138
:1003F00001F0D0FD45B18020012101F0B3FD802046
:10040000002101F0AFFD08E001F045F928B13C48BA
:10041000D0F8E0550DB102F0A2FA3A4E346884F3F8
:10042000088836490A68904700F0CEFF012001464F
:1004300000F08EFF00F0D2FF40F2F31398421F4607
:10044000F8D900F0C1FF0120002100F081FF00F089
:10045000C5FFB842FBD9E7E700F0B6FF00F0BEFFEA
:100460003227B0FBF7F364210446B3FBF1F001FB44
:10047000103242F21073B4FBF3F1560841F28830A7
:1004800003FB11428242B4FBF7F307FB134188BF21
:10049000C6EB07060120B14294BF002101210A27C3
:1004A00000F056FFB4FBF7F607FB16440CB900F05A
:1004B000A9FD002000F03AFD00F090FF44F61F6116
:1004C0008842CBD900F080F80028C7D1002D3FF436
:1004D0005AAF074A1069C307C0D454E7AC350008C7
:1004E000C4350008943500080010024000040240A2
:1004F00000000240D23F0008D33F0008044000083B
:10050000EC15002000400008124B1A78032A10B5A1
:100510000BD811490C6800F07F004FEAC41444EA7C
:10052000001008600FD104220EE0072A0FD80B49F3
:100530000C6800F07F004FEAC41444EA0010086021
:1005400001D1082200E001321A70002010BD4FF0E6
:10055000FF3010BD000500203800002044000020BE
:1005600070B5134B88B016461A7804460D468DF8C0
:1005700000209978DA7858781B798DF802108DF878
:1005800003208DF801008DF8043000F083FD8DF814
:100590000500F7208DF808006946204609228DF8ED
:1005A00006508DF8076000F087FA08B070BD00BFF4
:1005B000F436000810B9034B187070474FF0FF3045
:1005C000704700BF01050020014B1878704700BF3D
:1005D000010500202DE9F04198460C4615460646D7
:1005E00000F04CFD00F0F0FEB8F1010F04D0B8F1BE
:1005F000020F40F0A38189E0B14B14B1012C0AD164
:1006000004E01C70AF4BB04A1C6092E019780729D7
:1006100000F2918197E01978082903D030460E2125
:100620000122E5E0A948AA4C02784378817822703B
:10063000C2780079A34FA44D6370A170E27020715D
:100640003F682D6800F026FD4FEA556E6071780E08
:100650000223E071C7F386417044A3712172C7F38E
:10066000C62341186372C7F3061253FA81F3C5F328
:100670008640A27252FA83F250FA82F1C5F3C62381
:1006800053FA81F22073C5F3061050FA82F16373B6
:100690000023A07384F80BE0C9B21A460F34184641
:1006A000A84221D010F807E04FF0080C01335200A7
:1006B000DBB242EADE12062B4FEA4E0ED2B25FFAEE
:1006C0008EFE0AD9C3F1070302FA03F2D2B251181F
:1006D000002304F8012BC9B21A460CF1FF3C1CF0B0
:1006E000FF0CE3D10130DBE71BB18B1804F8012BC1
:1006F000D9B24A42764902F07F00F723A21C20704B
:1007000063703046521A00F0D7F914E114B1012C8D
:1007100053D110E06A4B6B496B486E4A1C700C60F9
:1007200004606D4B6D496E4814706E4A1C700C600D
:1007300004601460FFE062480178072907D8654922
:1007400008782A180A702846FFF7DEFEF3E0082929
:100750002BD160480278AB18037060480368B3F58A
:10076000806F80F0E880584E5E4F5D4C3668386888
:10077000226807240132C5F380176D00072A47EA73
:100780004000EDB206D9524AD0540133B34228BFDB
:1007900009210022013CEDD1524C206050480260FA
:1007A0004E4A1360464B1970C5E0092902D14A4BE5
:1007B0001D70C0E00C220270BDE0434B47481F682B
:1007C0000168B942FFF42AAF3D4A13780C2B03D1DC
:1007D00030460E2142460BE03E4A3F4813780178EE
:1007E000584200F07F02914205D030460E2103228C
:1007F000FFF7B6FE9FE0334B3B4901240C701C68A9
:1008000044EA0700830740F08C80384A944202D8BB
:100810006FF0070087E000F0D9FC00F100614B1E8B
:100820009C426DD801F064FA00230C2159433048F2
:100830000A58944224D12F492F488C4201D10022DA
:1008400002600121006801FA03F1014203D02B4D3F
:100850004FF000082EE041EA000227490A60244ACE
:100860000C2000FB03230221586801F0A5FA082898
:10087000EDD04FF0FF3001F051FA6FF0030052E07D
:1008800001330C2BD1D1E2E76B7829781A0442EAC4
:10089000012315F8011CAA780B4343EA026101F019
:1008A0006DFA04350828E4D101F01AFA01F010FAC3
:1008B00008F10408B84508EB0400E5D342E000BFA6
:1008C000000500203800002044000020F436000815
:1008D000500000204000002048000020FC040020C0
:1008E000F80400204C00002001050020FF3F000814
:1008F000F4350008004000083C00002051000020B2
:10090000B4F1005F84D300F069FC00F10050421E96
:1009100094423FF67DAF20460E493A4602F030FE43
:1009200010E06FF0080043420E213046DAB2FFF7C4
:1009300017FE00F067FB0020BDE8F0814FF0FF30AC
:10094000BDE8F0810449087842420F21304602F0A8
:100950007F02ECE7500000204000002010B5114B52
:1009600088B01A7899788DF800200446DA7858789B
:100970001B798DF802108DF803208DF801008DF899
:10098000043000F087FBF7218DF8050001208DF879
:1009900006008DF8071020466946082200F08CF802
:1009A00008B010BDF436000808B52020FFF7D6FFC8
:1009B0001020FFF7D3FF024B0020187008BD00BFC6
:1009C0000105002010B5044600282CD1174A18490B
:1009D000102313700B70174A174B184918601060DA
:1009E0000860174B174A184918601060086000F03B
:1009F00057FF164B164A1C70164B174914701C7083
:100A00000A78C00F422A04D114490A78110658BF47
:100A10001A70134B00211980124900220023C1E9EA
:100A20000023404210BD4FF0FF3010BD00000020F9
:100A300001000020040500200C05002030050020E6
:100A40003805002020050020100500201405002096
:100A50001805002015050020D03F0008D13F0008F0
:100A6000160500202805002010F0F00F38B50446C8
:100A70000D4604D101280CBF0C4B0D4B1C780D4BBF
:100A80001A6864F3071542B904F0F004102C0AD177
:100A90002846BDE8384000F071BF204629469047FF
:100AA0000028F1D038BD4FF0FF3038BD01000020E4
:100AB00000000020040500202DE9F04180460E468C
:100AC00017460024BC4235D23B1B022B0DD0032B12
:100AD00019D0012B19D1325D052161F3030562F3B1
:100AE0000F2501346FF317450AE03119305D4A785C
:100AF000062363F3030560F30F2562F31745023401
:100B00006FF31F650FE0072000E0042060F303058A
:100B10003019335D4178827863F30F2561F317450F
:100B200062F31F65033440462946FFF79DFF002806
:100B3000C8DA00E00020BDE8F081000030B5A1B0C7
:100B4000F0238DF80030134B7E2232258DF80320E0
:100B50001A788DF8045000240F258DF801408DF887
:100B600002408DF805208DF8065002AB0D5D5A1E2F
:100B700035B101341A4603F8015C0133642CF5D118
:100B8000F72102F8011B6946521AFFF795FF21B0C1
:100B900030BD00BF1505002000B589B0F0238DF8E9
:100BA000003000238DF801308DF802307E238DF85F
:100BB000033032238DF80430084B8DF806101B7873
:100BC0008DF80720F7218DF80810092269468DF865
:100BD0000530FFF771FF09B000BD00BF150500200B
:100BE000F0B5454E8BB0337804460D461746FFF7F7
:100BF000F1FC00287CDA31780D295AD001D829B1CE
:100C000069E00E2974D00F2965D15AE03B4B1DB124
:100C1000012D03D11F706BE01D7069E01878052865
:100C200029D011D8022820D004D801283DD120464F
:100C3000334937E003281BD0042836D100F0C0FA2E
:100C400030490246684623E0082826D006D8062800
:100C500019D0072829D100F0C1FA16E009281FD0C1
:100C60007F2822D1FFF7A0FE42E02046264919E066
:100C70002046264916E0684600F0B4FA00282046CF
:100C800009DA23490EE000F0A1FA2249024668463B
:100C900000F0F4FF2046694604E020461E4901E0CA
:100CA0001E492046FFF74AFF22E020460E210D2272
:100CB00004E0022D1CD120460E211022FFF76CFF0C
:100CC00016E0174A0DB1012D01D1556010E05268B0
:100CD00072B92046F2E70E210A462046FFF75CFF74
:100CE0000F49054B0A7800206FF307020A7018704D
:100CF00000200BB0F0BD00BF080500203405002027
:100D000094360008B63600089B360008AC3600085A
:100D1000BB360008BD360008C0360008D2360008D1
:100D200018050020F72910B50A465AD82E4B197815
:100D300001F0080303F0FF041BB12C4B1B78834226
:100D40004CD1A0F11103062B48D9284B187004BBD5
:100D50002548037803F00703042B03D82448C05C1C
:100D6000904221D101F00701052903D121480178E2
:100D7000914219D15A1C1C4B197802F0070060F3FC
:100D80000201052819702CD9CAB242F00800187067
:100D900027E0130611D5F72A06D101F01001CBB2D6
:100DA00013B10221FFF71CFF0F4B134A19780020E3
:100DB0006FF307011970107010BD01F01004E4B258
:100DC00044B9094B197841F0100119700A4B2146BA
:100DD0001A7000E00121FFF703FF02E04FF0FF303F
:100DE00010BD002010BD00BF180500201405002014
:100DF000F4360008150500200805002001F00F0357
:100E00002DE9F0470F46C1F30728C1F307494FEA20
:100E1000116A03F1080101F00F010629064602D804
:100E2000002A58D17AE0B8F1F00F05D003F10C0098
:100E300000F00F01032929D83A49D1E9004554EAC5
:100E4000050023D106F0F004302C4FF000000CD048
:100E5000502C13D0102C19D1334C208006F00F00E9
:100E6000012404FA00F0088010E02F4C208006F0E6
:100E70000F00012404FA00F0488007E02A4C20808B
:100E800006F00F00012404FA00F08880991E0D2955
:100E900044D8DFE801F01E1E071B242443434343CC
:100EA00043434307B8F1F70F13D83046414607F0E4
:100EB0000F07FFF737FF0F2F30D049463046FFF7B7
:100EC00031FF30465146FFF72DFF27E0B8F1F70F0D
:100ED00005D91AB3304627F0F00190471EE01A1FDB
:100EE00012F0FF041AD030464146FFF71BFF012CD9
:100EF0000CD030464946FFF715FF022C05D030468E
:100F00005146FFF70FFFD04600E0C846B8F1F70F93
:100F100004D1044800220023C0E900230020BDE8DA
:100F2000F08700BF280500201605002013B50446F1
:100F300001A800F03BFD002807DB0199C1F3031075
:100F400010302246FFF75AFFF2E72849D1E9002383
:100F500052EA030047D0264B1888B0F57A7F42D971
:100F60000A8862B1002142FA01F313F0010003D1B3
:100F700001311029F7D101461031C8B21AE04B886F
:100F80005BB143FA02F010F0010103D10132102AE3
:100F9000F7D10A463032D0B20CE0888850B140FA1E
:100FA00003F111F0010203D10133102BF7D11346E5
:100FB0005033D8B20F4B1A7802F00801C9B249B1C8
:100FC0000D490978814205D16FF307021A700B4B66
:100FD00000221A700A490A6802B1904703480022A9
:100FE0000023C0E9002300201CBD00BF280500200D
:100FF0001605002018050020140500200805002013
:101000003805002010B500F0FDFC044600F048F85B
:10101000054B1A884FF6FF718A4240EA040001D05E
:1010200001321A8010BD00BF16050020114BF7B524
:101030001C680746E4B1C1F30764C1F30720C1F39C
:1010400007420D4D8DF8064001F00F0100246E5C43
:101050008DF804008DF805202546B54208DA01AA6E
:10106000044B515D1B683846984701350443F4E74B
:101070002046FEBD0C05002084360008012803D060
:10108000034B1870002070474FF0FF30704700BFCF
:1010900001000020014B1878704700BF15050020A3
:1010A0000020704713B5044600287AD11F20012183
:1010B00000F01CFF3C4B00949A6802F00C000828DA
:1010C00002D1012000905DE0196841F001021A6030
:1010D0009C60186820F08471344821F480321A60D2
:1010E0005860196821F480221A60DC600194186845
:1010F00040F4803119602C4B1A6802F400300090E3
:1011000001994A1C0192009818B90199B1F5A06F94
:10111000F1D11B6813F4003218BF0122009200982D
:1011200001282FD1204B2248196C41F080521A64BB
:10113000016841F48042026098689860996841F4BF
:1011400000429A6098681B4A40F4A05199605A6026
:10115000186840F0807119601868134A8101FBD546
:10116000154B40F205611960906820F00301916011
:10117000936843F0020090600B4A916801F00C0301
:10118000082BF9D10D48002100F092FD4FF440707A
:1011900000F084FD009A012A14BF4FF0FF300020B8
:1011A00001E04FF0FF301CBD003802401030002439
:1011B0000070004008544007003C02400000000856
:1011C000014B1868704700BF002004E0024B1888EC
:1011D00081B28802704700BF227AFF1F4FF440306F
:1011E0007047000000230B4A591089180A78D90764
:1011F00058BF120902F00F02092A94BF302137218B
:101200008A18C2540133182BEDD10021017608460B
:10121000704700BF107AFF1F074B1A681AB9EFF327
:101220001081064801604FF0010080F310881A68B1
:10123000511C196000207047400500203C0500202B
:10124000074A13683BB1581E106038B905490A684F
:1012500082F3108802E04FF0FF30704700207047A3
:10126000400500203C0500200F291CD80F4BDA68F0
:10127000D343C3F30222C2F1040301FA03F10901CB
:1012800000F16043CAB203F56141012381F80023F4
:1012900042B200F01F00510903FA00F2044840F87E
:1012A0002120002070474FF0FF30704700ED00E034
:1012B00000E100E073B5054668460E46144600F0AE
:1012C000F4FD02238DF805300096062C29D8DFE8BE
:1012D00004F02604090F13181D0003208DF80400E4
:1012E000002302E000238DF804308DF8073012E06F
:1012F00000228DF80420F8E700218DF80410012366
:10130000F3E701208DF80400002302E001238DF8AB
:1013100004308DF806302846694600F083FD002031
:1013200001E06FF001007CBDC30710B5044605D590
:1013300006484FF480510522FFF7BCFF34F00F033D
:1013400014BF6FF00100002010BD00BF000C024070
:10135000C20707D5074B11F0010F4FF4805214BF9D
:101360001A835A8330F00F0314BF6FF0010000207E
:10137000704700BF000C024030B5012185B0044623
:10138000102000F0CBFD54204443611E0D4CADF8FD
:1013900004104FF6FF730025204601A90293ADF813
:1013A0000C50ADF8065000F001FE01210A4620461F
:1013B00000F046FE2046012100F036FE284605B02A
:1013C00030BD00BF001000400348012108B5416254
:1013D00000F04AFE002008BD00100040054810B58E
:1013E0000121446A00F035FE00280CBF20464FF072
:1013F000FF3010BD001000401FB50446B8B90120F1
:10140000014600F097FDA7204FF6FF73ADF80400EA
:1014100001A909480293ADF80C40ADF8064000F070
:10142000C5FD0548012100F0FFFD204601E04FF019
:10143000FF3004B010BD00BF00000140044B596AEA
:1014400089B25A6A521A92B28242FAD9002070477F
:101450000000014012230B80004870474837000805
:1014600004230B80004870474437000830B51D4BFB
:1014700087B001AA03F1100518685968144603C41F
:101480000833AB422246F7D1188800232080164942
:101490005A18107858B120385F288CBF00200120DE
:1014A0000133202B06D00028F1D101A905E0002B43
:1014B000FBD001E00028F8D00B49481E022310F8A9
:1014C000011F0A4A39B1642B05D0D418D154002128
:1014D00061700233F3E7032050701370034807B0C4
:1014E00030BD00BFC0360008E03F0008DC1B002014
:1014F000FFF7BCBFFFF7BABF704770477047704730
:1015000070470020704700207047000065230B8063
:10151000004870478737000810B50B4B8CB098789F
:101520001A888DF8060002A80C46ADF80420FFF7D3
:1015300059FE0028ACBF02A801A80449224601F0C8
:10154000CDF802480CB010BD78370008DC1B002035
:101550001FB5084C0A462068616801AB03C3A06848
:10156000054C1860214601A801F0B8F8204604B0E7
:1015700010BD00BF7B370008DC1B0020022908B526
:1015800003D10846002100F04DFA002008BD0129D2
:1015900008B503D10846002100F03CFA002008BD40
:1015A00010B50221044601F009FD2046812101F019
:1015B00005FD002010BD002000F078B9012000F0EA
:1015C00075B90000022110B5402204460B4601F017
:1015D000D4FC812140220223204601F0CEFC0221CE
:1015E000034A0448402301F002FD002010BD00BF63
:1015F000AC150020EC15002013B501201B4C014652
:1016000000F074FC032002214FF4D85300228DF81F
:1016100005008DF804102046694600938DF80620D9
:101620008DF8072000F0FEFB204608210A2200F07A
:1016300045FC204609210A2200F040FC20460B21EF
:101640000A2200F03BFC0A2220460C2100F036FC66
:1016500001214FF4804000F06DFC8020012100F05A
:1016600051FC012000F02EFB1CBD00BF0000024019
:1016700043200821FFF7F8BD014801F03FBD00BF3E
:10168000EC15002080B2FFF7D9BE4FF47A735843AF
:1016900080B2FFF7D3BE4FF0A0431868C0F3C0403C
:1016A00070470000022837B505463FD8FFF783FF93
:1016B00045BBFFF7F0FF28B31E4C2046FFF79CFF09
:1016C0001D481E491E4AC4F8E005C4F8E41520462A
:1016D0000121C4F8E82501F069F8204601F038F945
:1016E000204601F0A3F92046FFF7C2FF01210323A2
:1016F000204684F8101184F81231FFF763FFFFF7DA
:101700005DFF11E00D4B0E4A009301210A4B094881
:1017100000F09AFD074801F0E9FC4CF25030FFF769
:101720008DFE044801F0DAFC002001E04FF0FF30AC
:101730003EBD00BFEC150020183700085C370008DC
:10174000FC36000870B5254CD4F8E035002B43D0AA
:10175000FFF762FD22480178002939D0D4F8D86318
:10176000B608B3B2002B33D01E4A108881B21BB228
:10177000C1F5007293422BDA00241B4D55F824501A
:10178000C5F3031010302946FFF750FC90B9174BF2
:10179000174A198889B242F8215019884A1C91B217
:1017A000B1F5007F198028BF18800E4803885A1CA5
:1017B00091B201800134301B03B2002BDDDC0849FB
:1017C000064800220A7040230221074A01F00FFC5C
:1017D000BDE87040FFF734BD70BD00BFEC150020C0
:1017E0008C15002084050020AC1500208E150020EB
:1017F0008C0D0020234BD3F8E00510B5002840D015
:10180000FFF70AFD20490A78002A36D11F4B1888B5
:1018100081B2002931D01E4A107800282DD01988B5
:101820008AB2102A98BF1988174B94BF89B2102129
:101830000120187015480288531A9AB202800022BB
:101840000BB29A4213DA134B13481C88A4B250F817
:101850002440124840F822401888013080B2B0F588
:10186000007F188001D3002018800132E8E7054886
:101870000A4A81219B0001F0D4FBBDE81040FFF72C
:10188000DFBC10BDEC150020880D00209015002055
:1018900096150020921500208805002044050020A0
:1018A000002814BF4FF0FF30002070470D4900237F
:1018B00010B50B800C4C0D4923800B800C4C0D494E
:1018C00023700B800C4C0D4923801A460B800C4C66
:1018D0000C4B012110B121701A7001E022701970B7
:1018E000002010BD840500208E15002086050020F4
:1018F0008C150020901500209815002092150020CE
:1019000096150020880D002038B5184C2378054620
:1019100013B94FF0FF3038BD154801888AB2B2F5CF
:10192000FF7F07D9FFF766FF2378002BF1D06FF018
:10193000010038BDFFF770FC0E4B0F49188882B2CA
:10194000501C41F8225082B21A80198888B2B0F532
:10195000007F01D300221A80054B1988481C82B2EF
:101960001A80FFF76DFC002038BD00BF96150020DF
:1019700090150020981500208805002010B5044619
:101980002046FFF7C1FF831C08D1074B1A8842F29B
:101990000F718A4207D8501C1880F1E7002802DB3B
:1019A000014B00221A8010BD94150020124B10B577
:1019B0000446188881B2D9B1FFF72EFC0F4B1049AD
:1019C0001A8890B251F8202022601C88601C81B2D5
:1019D000B1F5007F198001D300221A80064C2388BC
:1019E000581E81B22180FFF72BFC228890B210BDD7
:1019F0004FF0FF3010BD00BF840500208605002099
:101A00008C0D002008B5FFF79DFEFFF7F3FE0020C8
:101A100008BD0000024B00221A70FFF7EBBE00BFAA
:101A2000880D0020024B01221A70FFF78BBE00BF09
:101A30008C15002020B10368197001684A1C0260EF
:101A400070472DE9F843141E8046894601DC2027A3
:101A50000FE0002219F8021009B10132FAE7A242A0
:101A6000B4BFC2EB04040C4613F0020F0CBF2027D6
:101A70003027DB070CD42546002D05DD40463946CE
:101A8000FFF7D8FF013DF7E724EAE476A41B00E066
:101A900000263546C6EB0903595D21B14046FFF7E4
:101AA000C9FF0135F6E72646002E05DD40463946DA
:101AB000FFF7C0FF013EF7E7002CACBF2819281C38
:101AC000BDE8F8832DE9FF470C9EDDF834808146A0
:101AD0000C4651B930228DF804208DF8051032469D
:101AE00001A94346FFF7ADFF35E033B10A2A04D11F
:101AF000002902DA4C42012700E0002704AD002350
:101B000005F8013DAA466CB1B4FBF2F302FB1344A5
:101B1000092C02DD0E993A396418303405F8014D6C
:101B20001C46EFE787B14EB118F0020F06D04846C9
:101B30002D21FFF77FFF013E012705E02D2005F154
:101B4000FF3A05F8010C0027484651463246434605
:101B5000FFF777FF381804B0BDE8F087F0B589B01B
:101B600006460D46059200242B7823B1252B79D10A
:101B700068786A1C28B9002E7BD030680022027079
:101B800077E025286DD02D2802D1AA1C012300E082
:101B90000023174601323978302902D143F002037D
:101BA000F7E700223978A1F130005FFA80FC3D466A
:101BB0000137BCF1090F03D80A2505FB0202F1E742
:101BC000732909D1059F391D059139682A4F30467F
:101BD000002908BF394641E064290ED18DE80C0088
:101BE000059961230293081D096805900A22304671
:101BF0000123FFF767FF241839E0782906D10599FA
:101C0000081D8DE80C000590612207E058290AD1D3
:101C10000599081D8DE80C0005904122029230467E
:101C2000096810220BE075290BD18DE80C0005998D
:101C300061230293081D096805900A22304600239B
:101C4000D7E7632913D10599081D0968059000207D
:101C50008DF81C108DF81D0007A93046FFF7F1FE26
:101C6000C9E7154630462978FFF7E4FE013401350F
:101C70007AE7204609B0F0BDEC3700080EB40FB586
:101C800005AA019052F8041B01A80392FFF766FF12
:101C900004B05DF804EB03B07047000040F0BF6093
:101CA000024B40F40031D960704700BF00ED00E006
:101CB00021F0604121F07F02014B10439860704792
:101CC00000ED00E0014B5861704700BF003C01404F
:101CD000024B1A6842F4006018607047003C0240F2
:101CE000024B1A6842F4805018607047003C024072
:101CF000044B1A69002A04DA034800F1883158605D
:101D000059607047003C024023016745024B1A6945
:101D100042F0004018617047003C0240014BD8601F
:101D2000704700BF003C02400B4BDA68D0030DD473
:101D3000D868C1060CD4D96811F0EF0F0AD1DB685E
:101D400013F0020F0CBF08200720704701207047D6
:101D50000520704706207047003C024007B5082365
:101D60008DF80730FFF7E0FF8DF807009DF80700BA
:101D70000128F7D09DF807000EBD000070B505469C
:101D80000E46FFF7EBFF082813D10A4C236923F412
:101D900040702061216941F400722261236943F09F
:101DA000010020612E60FFF7D9FF216921F00102B7
:101DB000226170BD003C024070B5064641B1012968
:101DC00008D0022914BF4FF440754FF4007503E0AA
:101DD0000D4601E04FF48075FFF7C0FF08281ED1C3
:101DE0000F4C236923F44070206121690D43256164
:101DF000226922F0F8032361206940F002010E43BA
:101E00002661226942F480332361FFF7A7FF21692D
:101E100021F002022261236923F0F801216170BDE3
:101E2000003C02402DE9F0410F680023012202FA34
:101E300003F202EA0705954232D15A0003240668EC
:101E400004FA02F4E443264006600E79D0F800C09C
:101E500006FA02F8013E48EA0C0C012EC0F800C058
:101E600015D8866891F805C02640866086680CFA09
:101E700002FC4CEA06068660466826EA05054560CF
:101E80008D79466805FA03F5ADB235434560C568FE
:101E90002C40C460CD79C46805FA02F22243C260C6
:101EA0000133102BC2D1BDE8F08100214FF6FF7342
:101EB0000360017141718171C171704701F00703C5
:101EC000C908083130B59B0050F821500F2404FA9E
:101ED00003F425EA040440F8214050F8214002FAB6
:101EE00003F2144340F8214030BD0000044B1A6B4C
:101EF00009B1104301E022EA00001863704700BFF7
:101F000000380240044B5A6B09B1104301E022EA49
:101F100000005863704700BF00380240044B1A6C41
:101F200009B1104301E022EA00001864704700BFC5
:101F300000380240044B5A6C09B1104301E022EA18
:101F400000005864704700BF00380240044B1A6913
:101F500009B1104301E022EA00001861704700BF98
:101F600000380240044B5A6909B1104301E022EAEB
:101F700000005861704700BF00380240044B1A6AE5
:101F800009B1104301E022EA00001862704700BF67
:101F900000380240044B5A6A09B1104301E022EABA
:101FA00000005862704700BF003802401C4A038896
:101FB00090429BB212D002F5806290420ED0B0F1F6
:101FC000804F0BD0A2F58032904207D002F580629C
:101FD000904203D002F58062904203D14A8823F0F8
:101FE000700313430F4A904208D002F5806290427A
:101FF00004D023F440730A899BB2134303804B68D7
:102000000A88C362064B0285984203D003F58062BA
:10201000904201D1897A018601238382704700BFF3
:102020000000014000100040038819B199B241F04E
:10203000010303E023F001010A04130C038070473D
:1020400083899BB20AB1194301E023EA010181812E
:102050007047038A828911EA030092B203D01142C9
:102060000CBF002001207047C9438AB2028270472A
:10207000D0F8E43510B5044618698047032184F888
:102080001211002010BD08B5042380F81231D0F8D9
:10209000E405C1688847002008BD08B5D0F8E035E0
:1020A000D96901B18847002008BD08B5D0F8E035EE
:1020B000196A8847002008BD08B5D0F8E035596A8C
:1020C0008847002008BD002110B5402204460B4679
:1020D00000F053FF802140220023204600F04DFFF6
:1020E000D4F8E405012384F812314168A0788847C8
:1020F000002010BD13B56946044600F015F99DF89F
:10210000001001F01F03012B0CD006D3022B0ED1BF
:102110002046694600F03EF90EE02046694600F090
:10212000B3F909E02046694600F096F904E020463C
:1021300001F0800100F08EFF00201CBD70B5044648
:1021400000293CD190F81131022B41D1D0F8342133
:10215000D0F820319A4211D9D21AC0F83421C0786F
:10216000012804D1D4F82411CB18C4F82431204616
:10217000D4F8241192B200F0A7F829E0D0F8385131
:10218000B5FBF3F603FB16565EB99D4209D3D0F8B2
:102190003C21954205D2324600F096F8C4F83C61E5
:1021A00016E0D4F8E005C16829B194F81231032B88
:1021B00001D120468847204600F0A7F808E0D0F873
:1021C000E0355B6923B190F81221032A00D19847CA
:1021D000002070BD10B5044659BB90F811110329B9
:1021E00030D1D0F88C23D0F878339A4214D9D21A4F
:1021F000C0F88C23C078012804D1D4F87C13C81807
:10220000C4F87C039A4228BF1A462046D4F87C13AF
:1022100092B200F062F815E0D0F8E0150B6923B136
:1022200090F81221032A00D19847204600F05EF86A
:1022300008E0D0F8E0359B6923B190F81221032A19
:1022400000D19847002010BD2DE9F041069F0446BB
:10225000164698460D46FFF7CFF920462946C4F8A2
:10226000E085C4F8E475C4F8E86500F042FED4F8EF
:10227000E435186880472046BDE8F041FFF7F8B91B
:10228000D0F8E03510B504461A689047D4F8E40554
:1022900081688847002010BD08B5D0F8E0355A683D
:1022A0009047002008BD38B504460D46C4F83821D3
:1022B000C4F834211346022280F8112100212A4655
:1022C00000F0AFFE002038BD10B50C4613460021CB
:1022D000224600F0A6FE002010BD10B50C461346A5
:1022E0000021224600F083FE002010BD00210423BF
:1022F00010B50A46044680F811310B4600F091FEF5
:10230000204600F0D8FD002010BD0021052310B5A7
:102310000A46044680F811310B4600F068FE20465C
:1023200000F0C9FD002010BD90F8C8350B7090F882
:10233000C9254A7090F8CA3590F8CB2503EB0222E4
:102340004A8090F8CC3590F8CD2503EB02228A80A4
:1023500090F8CE3590F8CF2503EB022293B2CB80D4
:102360000121C0F83C3180F81111704710B591F986
:102370000030002B044602DA2046802103E0C988A1
:102380000029F9D0002100F065FE2046BDE810408C
:1023900000F091BD70B54E788A88012E04460D4636
:1023A000D3B211D029D3032E51D190F81221022A91
:1023B0002AD0032A49D14988A9B9A3B1802B12D0C8
:1023C000194600F047FE0EE090F81221022A1BD0B9
:1023D000032A3AD14988002939D153B1802B08D03A
:1023E000194600F055FED4F8E005294683682046DA
:1023F00098472046FFF77AFF29E090F81251022D06
:1024000002D0032D21D106E00BB3802B1FD019463B
:1024100000F020FE1BE012F0800F4FF0280006D0E5
:1024200002F07F0200FB024191F81A3103E000FB49
:10243000034393F87233074803B10123036005494E
:1024400020460222FFF72FFF01E0FFF78FFF002059
:1024500070BD00BFA415002038B590F81231032BD1
:1024600004460D460CD10A79012A09D8D0F8E03586
:102470009A689047E88828B92046FFF737FF01E0BF
:10248000FFF774FF002038BD73B54B7804460D4646
:10249000092B00F21681DFE813F0CC0002011401D1
:1024A000DE0014016E000A001401BC008F00488891
:1024B000020A531E062B00F20481DFE813F0070026
:1024C0001A0027000201020102010201D4F8E835D6
:1024D000A0781A680DF1060190470146E888402867
:1024E00003D094F81231012B35D10822ADF8062023
:1024F00031E0D4F8E015A0788A6A0DF10601904722
:10250000014602204870C4F8EC1524E0C1B2052948
:1025100000F2D780DFE801F003070B0F1317D4F8A0
:10252000E8355A6812E0D4F8E82592680EE0D4F84D
:10253000E805C2680AE0D4F8E8150A6906E0D4F8AC
:10254000E8355A6902E0D4F8E80582690DF1060120
:10255000A07890470146BDF80600002800F0B5803D
:10256000EA88002A00F0B180824228BF0246ADF816
:10257000062020466CE08988002940F0A280EB8884
:10258000002B40F09E806E8894F8122106F07F00A8
:10259000032A064600F0958084F813013146204650
:1025A00000F094FD2046FFF7A1FE0EB1022100E0ED
:1025B000012184F8121188E08978454E0129317093
:1025C0007FD894F81201022802D0032879D108E0BC
:1025D000002960D00121032384F8101184F81231FE
:1025E00013E041B9022284F8122184F81011204628
:1025F000FFF752FE4FE094F8101101294BD020460E
:10260000FFF74AFE317884F810112046FFF738FEB4
:1026100041E0CA88012A54D194F81211022905D048
:1026200003294ED1204604F5887111E0204629493E
:102630000EE094F81221901E012842D8D4F81431EB
:102640002549002B0CBF012203220A6020460122EB
:10265000FFF729FE39E04888012829D0022834D123
:10266000888810F0FF0F30D12169020A013A4B68C7
:10267000042A0FD8DFE802F0030507090B00012048
:1026800006E0022004E0032002E0042000E0052030
:1026900060F306134B602046FFF728FE15E094F820
:1026A00012118B1E012B0CD86A88012A0DD1002033
:1026B000D4F8E015C4F814018B68204629469847E1
:1026C000E9E720462946FFF751FE00207CBD00BF08
:1026D000A0150020A81500209C15002030B5D0B111
:1026E0000023DCB20133C51815F8015C002DF8D1C8
:1026F000631C5B00138003220B704A7001380223B5
:1027000010F8012F3AB15C1CCA54E2B20233002423
:102710008C54DBB2F4E730BD37B50023104C019385
:1027200005460320FEF7AEFFE8680269013C01920E
:1027300013D001990029F4DA019B43F001020192C0
:102740000199074A01610369013A019302D0019995
:10275000C907F8D40320FEF795FF00203EBD00BF57
:10276000410D030030B5C4786CB900EB820003332F
:10277000D0F8D0509B1022469A4204D051F8220043
:1027800001322860F8E7002030BD10B50332D0F8E0
:10279000D0409210002393424FEA830004D0206877
:1027A00041F823000133F6E7081810BDF0B5002307
:1027B000012240240129C370827084800CD102233D
:1027C000082604224FF4A0740372C172067042708E
:1027D000C4804FF0A04309E041B90C23C1720370DB
:1027E00006214FF4A065204B4170C58003F50061C0
:1027F00045780161C3600246194600240432AC42A8
:1028000001F1200608D201F5106701F5306111656C
:10281000576101343146F1E703F5806403F58861BF
:1028200044610478C0F8CC10002203F5A061A242F4
:1028300006D200EB82050132C5F890102031F6E790
:1028400003F580510022A24207D200EB820501323B
:10285000C5F8D01001F58051F5E703F56063C0F8C5
:102860000C310020F0BD00BF0000044038B5037AF1
:102870000025012B0446C36825D19A6B407A65F385
:10288000104208B142F480129A63D96821F48000A2
:1028900020F0500242F010016FF3C3016FF3C71133
:1028A0006FF351416FF3D341D9602046FFF734FFF6
:1028B000E378012B40D1052060F34405E26845F040
:1028C0002005956038E0DA6842F04001D960FFF7F2
:1028D00023FF207A617A032814BF4FF480324FF42B
:1028E000403242F4301309B142F47013E06883635C
:1028F0001420FEF7CAFEE368217ADA68032908BFCC
:1029000042F48032DA60207A032815D11D6B01224F
:1029100062F39B656FF3D7552D2145F0805561F328
:1029200016451D63C820FEF7B0FEE36845F40005B8
:102930001D63C820FEF7A9FEE178012906D1E368EE
:10294000986820F03E0242F02A019960002038BDCC
:10295000C3689A6842F00100986000207047C3681D
:102960009A6822F0010098600020704707B50023A4
:102970000193019A42F020030193019A094B61F3FC
:102980008A120192C268019810611169013B01919C
:1029900002D001988006F8D40320FEF773FE0020D1
:1029A0000EBD00BF410D030007B50023019301993F
:1029B00041F010020192C068019B074A036101695E
:1029C000013A019102D0019BD906F8D40320FEF709
:1029D00059FE00200EBD00BF410D0300C26808B5BE
:1029E000D36801296FF35D736FF39E7302D143F0D7
:1029F000005302E009B943F080433220D360FEF770
:102A000044FE002008BDC368586900F0010181F050
:102A100001007047C3685A6998691040704703699C
:102A20001A6861F301021A6070470000C368002150
:102A30004FF0FF3299615A615A605A61094A9A61AE
:102A4000C07888420CBF10220A4642F4872040F02A
:102A50000812986942F4401220EA020002439A6187
:102A6000084670470008008038B5D0F80C3101697D
:102A700000221A6015460A6865F3CC220A60C37A00
:102A8000012B04461BD10321FFF7C9FFE068C023D7
:102A900080214FF4800263F30F05416261F31F450B
:102AA00061F30F024FF4A0718262C0F8045161F328
:102AB0000F056FF31F45C0F80851C0F80C511021E5
:102AC0002046FFF753FF2046FFF76EFF20690023E3
:102AD0004FF0FF32036143618261C36161788B42D1
:102AE00014D204EB8302013390690168C1F30762D9
:102AF00002F08001CAB2002A14BF4FF090410021B9
:102B000001600022FF2102618160E7E70023607815
:102B1000834214D204EB83000133426D1168C1F388
:102B2000076000F08001C8B2002814BF4FF0904148
:102B3000002111600020FF2110619160E7E7236907
:102B40001A6942F480711961E078012804D1054ABC
:102B5000402161F359421A632046FFF767FF0020C6
:102B600038BD00BF0301010003699868C0F341014B
:102B70004B1E022B02D8024AD05C704703207047DC
:102B8000F33700080369816910B59C680A68C4F3CB
:102B90004100022802D06FF30A0202E0032060F332
:102BA0000A020A60596841F480725A60002010BD20
:102BB00030B54D780B780022012D00EB830405D150
:102BC00005FA03F5A46965F30F0205E0012505FA8E
:102BD00003F3646D63F31F422368C3F3072505F015
:102BE0008005EDB26DB98D6865F30A03CD78C988AB
:102BF00065F3934361F3995343F0805343F40041E9
:102C000021600069C3691A43C261002030BD30B53C
:102C10004D780B780024012D224600EB830105D16D
:102C200005FA03F3896963F30F0205E0012505FA4C
:102C300003F3496D63F31F4200696FF3CF340C60F7
:102C4000C16921EA0202C261002030BD70B54E7830
:102C50000A78012E0B4600EB820148D18D695C6930
:102C600029682A6964F3120214B966F3DC420BE0A6
:102C70009E68A419013CB4FBF6F6DC7866F3DC42EE
:102C8000012C08BF64F35E722A61C278012A06D162
:102C90001A7800EB82041A69A46962610CE0DA78A0
:102CA000012A09D05A693AB102691C78556B01268C
:102CB00006FA04F42C435463DA78012A07D1026936
:102CC0009268D20554BF41F0005141F080511A780A
:102CD00000EB820241F0044192691160D978012928
:102CE00037D1D9681A789B8AFFF73CFD31E04D6DEA
:102CF0005E692A689C6829692EB964F3120101246F
:102D000064F3DC410AE03619013EB6FBF4F666F3E3
:102D1000DC41B605B60D744364F312012961C17834
:102D2000012905D11C7800EB84014C6D19696161A2
:102D3000D978012906D1597911B142F0005201E048
:102D400042F080521B7800EB830042F00441426D58
:102D50001160002070BD73B54D78012D3DD18369A0
:102D60004A691E681C690094E4B242B962F3060421
:102D70009DF802208DF8004065F3C4020EE08D68D6
:102D8000AA428ABF4D6162F3060465F306049DF80A
:102D900002208DF80040012464F3C4028DF8022063
:102DA000009A1A61C278012A05D10C7800EB8402DE
:102DB00094690A69626146F004461E60C378002B7C
:102DC00034D14A69002A31D003690A78586B01214D
:102DD00001FA02F202435A6328E00B784E6900EBD5
:102DE0008302536D8A681D681C690094E4B206B1C1
:102DF0004A6162F306049DF802208DF80040012428
:102E000064F3C4028DF80220009A1A61C378012B82
:102E100005D10A7800EB82035A6D0B69536109787A
:102E200000EB810045F00445426D156000207CBD3B
:102E30004B780978012B00EB81000DD18069036884
:102E4000C3F3076202F08001CAB20AB143F08043C3
:102E500043F40011016004E0436D1A6842F400116C
:102E60001960002070474B78012B0B78C97800EB74
:102E700083000CBF8269426D1368881E6FF355533F
:102E8000012898BF43F08053136000207047036906
:102E90009A69D8691040000C704700EB8101026903
:102EA0004B6D996850690840704703699869D96902
:102EB000084080B2704782B000230093C0210122F5
:102EC00000238DF8031062F3C40318218DF802303B
:102ED0008DF80010436D009A1A61C178012906D15E
:102EE00000F5B96058611A684FF080221A6002B08C
:102EF000704710B50446FFF759FC012384F81231DE
:102F0000002384F813316278934210D228225A4366
:102F100002F58C716218012063545070002140202A
:102F2000D380D1709060D16051610133EBE7002311
:102F3000607883420FD22821594301F55C70221832
:102F4000002123544020D3805170D1709060D16013
:102F500051610133ECE72046FFF701FD2046FFF702
:102F600085FC00212046FFF739FD2046FFF77CFD58
:102F70002046BDE81040FFF7EBBC70B5CDB201F0C4
:102F80007F044FF0280606FB040415F0800F14BFE1
:102F900004F58C7404F55C7401F07F01ED09217077
:102FA0006570A260E37005B1E180022B01D10023BE
:102FB00023712146FFF7FCFD002070BD10B5CAB299
:102FC00001F07F034FF0280404FB030312F0800F8D
:102FD00014BF03F58C7303F55C7301F07F01D20914
:102FE00019705A701946FFF712FE002010BD38B54F
:102FF00001F07F042825654305F55C7541194455AA
:103000004B610023CA608B614B70C378012B08BFF2
:103010000A6114B9FFF79FFE01E0FFF717FE0020D9
:1030200038BDF8B501F07F042826664306F58C7696
:1030300081190127CA600A61002205464F70845534
:103040008A614B6114B9FFF786FE01E0FFF7FEFDD0
:103050000020F8BDCAB212F0800F10B54FF028035F
:1030600006D001F07F0403FB040303F58C7303E037
:1030700003FB010404F55C73D209012401F07F0114
:1030800019709C705A701946FFF7D2FE002010BDCF
:10309000CAB212F0800F10B54FF0280306D001F02D
:1030A0007F0403FB040303F58C7303E003FB0104BB
:1030B00004F55C730024D20901F07F0119709C7043
:1030C0005A701946FFF7CFFE204610BD0269002353
:1030D00061F30A1311680B431360704703695A6860
:1030E00003206FF341025A60FEF7CFBA03695A68B2
:1030F00042F0020058600320FEF7C7BA2DE9F74FEF
:103100000446FFF780FC08B9002033E22046FFF7B1
:1031100081FC07460028F7D0C0F3074A0AF00800F0
:10312000C0B200285DD02046FFF7B1FEA146804620
:1031300026464FF0000BB8F1000F51D018F0010FE8
:1031400046D05FFA8BF5294620460195FFF7A5FE8C
:1031500010F0010F0546019B20D0726D012595608E
:10316000E178A94207D11069D9F87823C0F3120198
:10317000501AC9F8880375490A682046194612682A
:103180009047E378012B09D1BBF1000F06D194F8E9
:103190001101052802D12046FFF78DFE05F002013E
:1031A000CAB212B1736D02259D6005F00400C1B270
:1031B00011B1726D0425956005F00803D8B238B1DD
:1031C00062490D682046AA689047736D0820986090
:1031D0000BF1010B4FEA5808043609F12809AAE758
:1031E00001200AF0040A5FFA8AF3002B00F0B18094
:1031F0002046FFF75AFE264681464FF00008B9F1F7
:10320000000F00F0A58019F0010F00F099805FFA1F
:1032100088FA236904EB8A0019695D6B826925FAD3
:103220000AF59068EA01D5B20D430540EA071BD5BF
:10323000586B464A012505FA08F120EA0100586357
:10324000B36910689D605146436820469847E1780D
:10325000A94209D1B8F1000F06D194F81121042A2E
:1032600002D12046FFF727FE05F00400C3B213B1D8
:10327000B16904258D6005F00802D0B210B1B369C0
:1032800008259D6005F01001CAB212B1B069102581
:10329000856005F02003D9B211B1B269202595608F
:1032A00005F04000C3B213B1B16940258D6005F04F
:1032B0000202D0B210B1B36902259D6025F07F01F2
:1032C00011F0FF0F3CD0282202FB084000F58C755E
:1032D0006969AB69A868CA1AB169824238BF1046E9
:1032E00000F1030C88694FEA9C0C83B2634524D932
:1032F000AA696869824220D2F8B1AB68E968C2EB7A
:10330000000B9B4528BF9B460BF1030E4FEA9E0C1A
:1033100052461FFA8BF32046CDF804C0FFF722FA7D
:10332000EA68A969DDF804C002EB0B0001EB0B03AE
:10333000E860AB61B2699069D7E7B5698021A9609F
:1033400008F101084FEA5909043658E70400002043
:103350000120FDB205F00201CAB212B1E3680221F8
:103360005961C7F3076202F08003D9B2C9B1A07AEC
:1033700040B1D4F80C31D4F80C216FF341036FF352
:103380000003136021697C4A486820F001034B6008
:10339000116820468B699847E0684FF0004242610F
:1033A0000120C7F3072808F00801CBB2F3B1724837
:1033B00002682046516988472369E26898684FF49B
:1033C00000615161A37A83B1C3070ED5D4F80C0113
:1033D000026842F001010160036843F003020260E9
:1033E0006648016941F006030361012005F0080207
:1033F000D1B241B1604803682046DA689047E1687D
:1034000008204861012005F01005EDB2002D35D0EF
:10341000E668B36923F01002B261366A282006F02C
:103420000F01C6F3434300FB0145022B05F55C7514
:103430000DD0062B1CD104F5B96108222046FFF7F8
:10344000A4F9AA69C6F30A169119A96110E047F612
:10345000F070304060B1C6F30A163246E968204683
:10346000FFF793F9EB68A9699A198E19EA60AE61C2
:10347000E068836943F010028261012008F01001C6
:10348000CBB2002B35D026697068002520F00102F0
:10349000726020462946FFF769FA23462A4661787A
:1034A00004338A4206D25E69FF21B160186D013291
:1034B0008160F4E720694FF0FF368661012666F3EC
:1034C0000F050F222F2366F31F45C561426103617B
:1034D00001686FF30A1101602046FFF7ECFC264BF0
:1034E000E06819684FF4805242610A6920469047AB
:1034F000304608F020085FFA88F3EBB12046FFF76A
:1035000041FBE5682046ED68FFF72EFB032806D156
:1035100000234FF40070A370A080092204E0012072
:103520004021A070A1800522E16862F38D254FF44F
:103530000052CD6001204A61C7F3074707F010032E
:10354000D9B249B10C4802682046D3699847E1686E
:103550004FF480104861012007F02007FFB24FB1FF
:10356000054A13682046196A8847E0684FF400123C
:1035700042610120BDE8FE8F0400002000ED00E064
:1035800010B50023934203D0CC5CC4540133F9E757
:1035900010BD000000000240800000000004024056
:1035A00000800000000402402000000000000240F3
:1035B000200000000004024000200000000402403F
:1035C000080000000004024004000000000C02405B
:1035D000000800000004024000100000000C02403F
:1035E00000040000000002400080000000040240CF
:1035F00000010000FFFFFFFF0000000000000000CE
:1036000000400008080000000000000000800008E2
:10361000100000000000000000C0000818000000BA
:103620000000000000000108200000000000000071
:10363000000002082800000000000000000004084C
:103640003000000000000000000006083800000004
:10365000000000000000080840000000000000001A
:1036600000000A08480000000000000000000C08EC
:10367000500000000000000000000E08580000008C
:103680000000000000000203030102030303030320
:10369000020203014D494F5333320053544D33322C
:1036A0004634444953434F564552590053544D33C1
:1036B00032463478780025303878003F00256400A1
:1036C0004D494F53333220426F6F746C6F616465A4
:1036D0007200286329203230313220542E204B6C66
:1036E0006F736500202530325800202020002530DF
:1036F00038582000F000007E320000005514000809
:1037000061140008511500086D140008191500080F
:10371000F1140008F5140008C5150008A1150008EB
:103720000315000800000000071500088F150008A9
:103730007D150008000000000000000000000000EF
:103740000D150008040309041201000200000040E6
:10375000C016FE031010010203010000F914000856
:10376000FB140008BD150008FF140008011500082F
:10377000FD140008B71500083432006D69646962F1
:103780006F782E6F726700090265000201008032B7
:1037900009040000000101000209240100010900E0
:1037A00001010904010002010300020724010001D4
:1037B000410006240201010006240202020009243D
:1037C00003010301020100092403020401010100B5
:1037D000090502024000000000052501010109055C
:1037E000810240000000000525010103286E756C70
:1037F0006C290002010200001010000008000020E7
:10380000D52100083D210008F52000089B20000874
:10381000C72000088720000871200008AB2000089E
:10382000B9200008000000000000000000000000B7
:10383000FFFFFFFFFFFFFFFFFFFFFFFFFFFFFFFF98
:10384000FFFFFFFFFFFFFFFFFFFFFFFFFFFFFFFF88
:10385000FFFFFFFFFFFFFFFFFFFFFFFFFFFFFFFF78
:10386000FFFFFFFFFFFFFFFFFFFFFFFFFFFFFFFF68
:10400000000002200D19010809190108C90E010854
:10401000091901080919010809190108000000001F
:10402000000000000000000000000000ED15010885
:1040300009190108000000005D1601089916010821
:1040400009190108091901080919010809190108C4
:1040500009190108091901080919010809190108B4
:1040600009190108091901080919010809190108A4
:1040700009190108E13F0108C13F010809190108B8
:10408000E54401080919010809190108091901087D
:104090000919010809190108091901080919010874
:1040A0000919010809190108091901080919010864
:1040B000C9490108ED49010809190108E956010833
:1040C000F5560108D1560108DD5601080919010805
:1040D00009190108091901082D5401088D54010816
:1040E0000919010809190108091901080919010824
:1040F0000919010809190108091901080919010814
:104100000919010809190108114A010809190108CA
:1041100009190108091901080919010809190108F3
:104120000919010809190108A13F01080919010825
:1041300009190108091901080919010809190108D3
:10414000091901080919010809190108314D010867
:1041500009190108091901080919010809190108B3
:1041600009190108091901080919010809190108A3
:104170000919010809190108091901080919010893
:084180000919010809190108E1
:020000040801F1
:10000000F7B501F01BF9019001A8012101F02EFACA
:100010002B482C4B07882C491C7800221346D5B25C
:10002000A5422AD2072B28D831F8020B06B2002E9F
:1000300014DA2648C554264D264855577D4320F8E6
:10004000135001330136DBB215D1234D00264FF694
:10005000FE7045F8226021F8020C0CE01F4D565D41
:100060004EB140B9DFF868E0505502F80E604FF627
:10007000FF7621F8026C0132D1E7194A16781EB9D1
:100080000F480022078814E0072BF9D914E0072B4A
:1000900012D80D4E36F91200002809DD0B4D0D481F
:1000A000E9540B4956567E4320F813600133DBB206
:1000B0000132D1B2A142EAD30A4D2B70A4E700BFAE
:1000C00000000020D8B30020C0A90020D6A900203D
:1000D00000A9002002A90020CCA900201DA9002011
:1000E000DEA90020DFA90020F8B5134E04460F4614
:1000F00006EB4416114802F017FA3946304609F06B
:10010000EBFA0546304609F063FB002D04DA294678
:100110000B4802F009FA0CE00A4B0B48002243F8A6
:100120002420B368214640F824303A46074802F0BC
:10013000FBF92846F8BD00BF80A90020889A010875
:10014000989A0108CCA9002014A90020BF9A0108A0
:100150002DE9F843134B814653F822508846174641
:1001600009F0A4FA6D0AB5FBF0F4B4F5805F064619
:1001700013D204EB07370C4850F8270009F09CFA1B
:1001800006FB14540019494603F0C8F80028ACBF18
:1001900040466FF00100BDE8F8834FF0FF30BDE846
:1001A000F88300BFCCA90020D82000202DE9F34718
:1001B000AD4BAE4E002814BF4FF4806000203618BF
:1001C000187830B9002232500430B0F5806FF9D180
:1001D0006AE104F057FC0120014604F017FAA44933
:1001E0000878002800F033810024A14D2F78A74221
:1001F00070D9A04BA049185DA04A51F8205052F880
:100200002070BD4203D39E49002321F810309D4841
:10021000002500EB8427DFF85C829B4B18F8042054
:10022000985C85422CDCA002964B00EB45215818C7
:100230004FF40071FFF78CFF002808DA18F804006B
:100240008F4A924B002122F8101023F8141089488D
:10025000025D894850F8221029B101F5007140F87B
:1002600022100135D7E78A4B9B5C002BF5D00B465B
:100270004FF0000C07F803C001332C2BF8D1ECE74A
:100280007F4D35F9121099B904F006FC282807466D
:1002900025D9774D0A232A78B0FBF3F10134009277
:1002A0007C4803FB1172234602F03EF92C7011E0EA
:1002B000714B724953F8225051F822309D42E3D9D4
:1002C000421C5202581B83189342DDDA0025FD546C
:1002D0000133F9E76649002591F800C052E0013486
:1002E000E4B282E7634C6848135D6B4CC15C14F860
:1002F0000380634C0131694334F81300B8F1000FF7
:1003000043D0803880B210F4004F18BF002024F88A
:1003100013005B4C5B4834F81380940203195B189C
:10032000611893F80190405C00EB092318FB03F17E
:10033000CB13564830F81210013211FB0377D0B2BC
:100340006045CFD3FB1347F6FF77BB4203DC534F27
:10035000BB42A8BF1F4600231946DAB2624542D30A
:10036000C81347F6FF71884203DC4C498842A8BF96
:100370000146BFB247EA014346F815300235B5F5EC
:10038000007F6AD000221746D9E7DFF814A13AF8B7
:1003900013A00FFA80F9D14507DDDFF8089139F88D
:1003A00013E06FEA0E09484408E0B9F1000F0CDDD4
:1003B000DFF8F09039F813E0CEEB000080B210F4D3
:1003C000004FA4D024F81380A3E750B12D48940225
:1003D00003195B18611893F80180405C00EB082357
:1003E000A7E70346A5E7234C27481A5D244C805C09
:1003F00034F8122014B200F10108002C08FB05F8B3
:1004000010DD204C04EB832400B2444404EB40088C
:1004100014F8100098F8018000EB082012FB00F29D
:10042000D2130DE062B1174A02EB8324444400B2B8
:1004300004EB400214F8100092F8018000EB08224F
:10044000124830F81300013310FB021185E7002237
:1004500032500430B0F5806FF9D10120002102B094
:10046000BDE8F04704F0D2B8D8A80020D8A00020FA
:10047000DFA90020D6A90020CCA9002014A90020C3
:10048000C0A90020D4000020C6A9002002A9002095
:10049000D4A90020F39A01081DA900200080FFFFC5
:1004A00020A90020FCA8002002B0BDE8F08700BF12
:1004B0002DE9F047964B9749A6B07F22044607A83E
:1004C0001A8009F055FA2246934906A805F040FA29
:1004D00006A907A809F034FA0120014604F096F8AD
:1004E0008E488F49002404700C708E4807A902F0D2
:1004F0001BF88D4807A909F0EFF8A042A8BF2546D0
:1005000003DA8A4802F010F8FAE016A83F2109F051
:10051000AFF900285CD0002110220DF15A0000F044
:1005200061FD834E002146F825000A220DF15D0091
:1005300000F058FD7F4A804E505500210DF15F00BC
:100540000A2200F04FFD7D4B80B27F21AF00E052C8
:10055000A153D8B12C267043714A002180B210F407
:10056000004F117047F6FF720CBFE052E252734920
:100570007148635A92FBF3F626525E43C6F5FF427A
:100580007F3296B26E489B1B265263526D491E22E3
:1005900002FB0516304619A909F0FAF9674A684BBB
:1005A000A05A654A0090E15A624B0191A05A02900C
:1005B000E95C5F4B039132462946FB58624801F0E3
:1005C000B3FF564961480B7800222A545A1C0A701E
:1005D00001350234022D98D1534809F0F9F800246E
:1005E0004E480178A14240F28B80564B1E22204695
:1005F00002FB0431FFF778FD18B1554801F094FF74
:1006000077E0544D544E285530552C210BA809F055
:100610000DF918B1514801F087FF33E00B985049AC
:1006200088422FD10D9B4F4A93422BD1BDF84050A9
:10063000012D20D1BDF84E60102E1CD111984AF624
:100640004441884217D1BDF84210022913D8149BA7
:10065000454A93420FD13F483F4E0155434801F070
:1006600063FF15999DF84220414B2C31551E43F8EC
:100670002410355506E03E4E3E48002501F054FF5B
:1006800046F8245009F012F84FEA40293A4800266B
:1006900000EB843A3546364951F824309E4228D240
:1006A000364F07EB4417384609F05CF8002820DB8A
:1006B000304609F0A9F8B0F1000805DB0DF117008C
:1006C000012109F0B3F88046384609F081F8B8F105
:1006D000000F0EDB294A02EB441029460269284824
:1006E0004AF82520013501F01FFFB5F5805F4E4423
:1006F000D1D1244B002123F814100134E4B26FE768
:100700000120002103F082FF26B0BDE8F08700BF82
:100710000000002002000020319B0108D8B3002017
:10072000DEA90020349B0108DCA80020499B0108B9
:10073000DCB30020C8A90020FCA8002020A90020CC
:10074000D000002024A90020639B01081DA90020DF
:10075000BC9B0108D4A90020C6A90020D59B010894
:10076000524946465741564564617461EC9B010805
:1007700014A90020089C0108D820002080A900208E
:100780001C9C0108C0A9002010B50024204601349B
:100790000421E4B203F082FF102CF7D103F0C4FF70
:1007A0004FF67F7380B298421AD04033984219D0E6
:1007B0002033984218D01033984217D0083398420B
:1007C00016D0191D884215D08A1C904214D0531C93
:1007D000984213D047F6FF71421A5042504110BD63
:1007E000092010BD082010BD072010BD062010BD37
:1007F000052010BD042010BD032010BD022010BD37
:1008000037B500F01BFD019001A8642100F02EFE19
:100810000E4B18780028F7D00D4CFFF7B5FF227863
:1008200082420146F0D020700A4C0B4D20700B48DC
:1008300001F07AFE00210A48297001F075FE207847
:10084000FFF736FE01232B70DEE700BF1CA9002056
:10085000C4A90020D4200020D8A80020D09C0108E2
:100860002C9C010830B52149214889B001F05CFE7B
:1008700020481E4908F030FF00282BDA1E4801F0FE
:1008800053FE30E01D4901A809F098F81C490546BF
:10089000002009F093F8044629462246194801F041
:1008A00043FE1949284609F058F8014628B9204660
:1008B0000A2200F097FB154B18701549284609F0DD
:1008C0004CF8014630B920460A2200F08BFB114952
:1008D0000138087001A8192108F0CAFF0028D1D1F9
:1008E000044808F075FF09B030BD00BF5B9C0108EB
:1008F000449C010860A90020669C010860A80108CA
:10090000F49E0108829C01089E9C01081CA90020FD
:10091000A59C0108C5A90020F8B5434A1278C1F387
:100920000325C1F30743080E9542DCB27BD101F0E9
:100930000F02A2F10805012D49D8C1F3072202F0E8
:10094000F0019029394B00D110B91978002328E023
:1009500000221F781346D9B2B9421BD2344951F84C
:1009600023108C4213D13349334D565A2EB94FF6CA
:10097000FF7656522D5C314908E036B216F1020F6F
:1009800004BF47F6FF7656522D5C2D495D54013366
:100990000232E0E7F8BD264A52F82300844204D030
:1009A0000133D8B28842F6D310E0254A002098548B
:1009B00024481A5C002AF3D11E4A32F91300002899
:1009C000BCBF47F6FF7022F81300E9E7F8BD0C2A18
:1009D00020D11D4821461D4C03701D4801F0A4FD87
:1009E00021780023DAB28A424FF0000206D2194879
:1009F0001C5C1048013320F81420F3E7164C17480C
:100A0000227001F091FD10490878FFF751FD012394
:100A10002370F8BD124B01F0FF1121F0F0029A4251
:100A200004BF104B1880F8BDC5A90020D8B3002022
:100A3000DCB30020C0A90020D79D010800A9002038
:100A40001DA90020C8A90020D4200020DFA9002073
:100A5000B19C0108D6A90020D8A800202C9C010830
:100A60000B0007000000002070477047704700002F
:100A700008B5002005F0B0F9022140F20F1005F092
:100A8000A1F9002003F06AFB0348044A4FF4007107
:100A9000BDE8084003F008BDD8A00020AD01010862
:100AA0001FB54FF0FF3003F085FD2D4B2D4801227F
:100AB0001A7001F039FD2C4801F036FD2B4801F089
:100AC00033FD002008F0D0FD002802DA284801F0AC
:100AD0002BFD4FF47A74002002F0D8FB002804DCD0
:100AE000013CF8D1234801F01FFDFFF7BBFE22486F
:100AF000017841B1214801F017FDFFF745FE204A7A
:100B0000204B107018701E4C2078FFF7D1FC1E4847
:100B100001F00AFD1D49012008700020FFF7A8FF21
:100B20001B4801F001FD642003F084FF002403232F
:100B30008DE81800029423460394164916484FF492
:100B4000807200F083FA02238DE818000294039467
:100B5000124913484FF48072234600F077FA1FBD04
:100B6000E4B30020E49C0108059D01082E9D0108C6
:100B7000459D0108B59D01081CA90020609D010844
:100B8000D4200020C4A90020739D0108D8A800200B
:100B9000899D01089A9D010801000108A59D010891
:100BA0000108010870477047704708B501F062F806
:100BB000BDE80840FFF759BF7047000007B500F0D7
:100BC0003DFB0190012101A800F050FC00F036FB34
:100BD000019B421F934238BF0190074800F0D4FFA9
:100BE000064801F077F9064803F095FF02F073F824
:100BF000FFF7E2FFE6E700BF6D0A0108A70B010857
:100C0000A90B01087047000007B500F017FB019021
:100C1000012101A800F02AFC00F010FB019B421FFB
:100C2000934238BF019001F0CFFC034801F080FFF0
:100C3000FFF7E8FFECE700BF1909010830B5002015
:100C400085B002F0DFFC002003F034FF002002F04A
:100C500007FC002003F0A0FC002002F0E1FF0020D0
:100C600000F0D2FE002000F063FF002000F0BEFF85
:100C7000002000F0C9FF002002F0F0F9002003F08E
:100C800047FF002002F0E7F9002004F067F8002099
:100C900001F06AFA002001F0E7FF002001F0EAFF0E
:100CA000002001F0C5F9012001F070F9002007F0E3
:100CB0009BF9002001F06AF9002003F04FFA08F0D8
:100CC00011FEFFF7EDFE01F01BFA4FF4FA644FF44A
:100CD0007A7003F011FF013CF9D1032523460095FA
:100CE0000194029403940B490B484FF4807200F076
:100CF000ADF90A4900954FF480722346019402949D
:100D00000394074800F0A2F900F06AFA204605B003
:100D100030BD00BF5C9E0108BD0B0108579E010855
:100D2000090C010808B502F0A5FBFFF79DFE02487B
:100D3000BDE8084000F0C0BEAB0B0108FFF732BFB2
:100D400010B5002401346423B4FBF3F203FB12401A
:100D500008B901F039FC094801F0EAFE42F21071CD
:100D6000B4FBF1F301FB1342002AEBD103F080FC4A
:100D7000C143012003F04AFCE4E700BF1909010860
:100D800010B5036841688268C46888B0009303693D
:100D90000191029241698269C06903940493334CC2
:100DA0000591069207900699314801F0BDFB204657
:100DB00001F0BAFB2F4801F0B7FB204601F0B4FB6D
:100DC00000992D482D4C01F0AFFB01992C4801F002
:100DD000ABFB02992B4801F0A7FB03992A4801F0CD
:100DE000A3FB0499294801F09FFB0599284801F0CD
:100DF0009BFB0699274801F097FB0799264801F0CD
:100E000093FB264B2648196801F08EFB254926489E
:100E1000096801F089FB254A2548116801F084FB27
:100E200024480168244801F07FFB2168234801F031
:100E30007BFB6FF07F4001F093F9002001F092F905
:100E4000002001F0A3F801F0F1F80020014601F0C4
:100E5000A3F81B4801F048F90121002001F09CF89B
:100E60000699184801F06AF9FFF76AFFCE9E01085B
:100E7000B89E0108E29E0108F69E01083CED00E0E4
:100E8000019F01080C9F0108179F0108229F01087C
:100E90002E9F0108C39E0108399F010838ED00E02C
:100EA000459F010828ED00E0529F01082CED00E06D
:100EB0005F9F010830ED00E06C9F0108799F0108F9
:100EC000869F0108979F01081EF0040F0CBFEFF3E7
:100ED0000880EFF30980FFF753BF704740482DE9C2
:100EE000F04FD0F800800846044614F8015B08EB88
:100EF00005062046777807F00806F7B2002FF3D1F1
:100F00002D2D03D114F8015B012704E02B2D04BF24
:100F1000244614F8015B002B5BD0102B07D1302D39
:100F200005D12578782D4DD1657810230234002F16
:100F30000CBF6FF000404FF00040B0FBF3F900260B
:100F400003FB190A304608EB050C9CF801C00CF0B5
:100F5000040B5FFA8BFBBBF1000F01D0303D0BE0BF
:100F60001CF0030C1BD0BCF1010F14BF4FF0570C49
:100F70004FF0370CCCEB05059D4210DAB6F1FF3F80
:100F80000AD0484506D801D1554503DC03FB005083
:100F9000012601E04FF0FF3614F8015BD3E7731C24
:100FA00008D1002F14BF4FF000406FF000402AB965
:100FB000BDE8F08F07B140427AB106B1611E116001
:100FC000BDE8F08F582DAFD03025002BAFD10823CE
:100FD000ADE7302DA5D00A23A9E7BDE8F08F00BF0B
:100FE0006400002030B505460C4613460020294613
:100FF0002246BDE83040FFF771BF00000E4B1A6873
:1010000010B5044650600D4801688C4207D20C4A66
:1010100010681B68191DBDE8104000F0A8BA094A05
:1010200010681B68191D00F0A2FA074801688C427D
:1010300038BF046010BD00BF98AA0020B0AA0020ED
:10104000B4AA0020F8A90020100000202DE9F84FD4
:1010500083464820884617469A460A9EDDF82C901B
:101060000C9D00F0C3FB0446002800F099801DB9D8
:10107000B80000F0BBFB054625631DB9204600F013
:101080007BFB8DE0BA002846A52108F051FC236BBC
:10109000013F03EB87001022414620F0070704F1CF
:1010A000340008F075FC042E34BF354604250021B9
:1010B00004F1040884F843104046E562656400F0DA
:1010C00046FA04F1180000F042FAC5F10502A261E7
:1010D0002461646238465946524600F07BFA20602B
:1010E000B9F1000F01D0C9F8004000F09FFA2E4876
:1010F0000368591C2D4B01601D6815BB1C600368FB
:10110000012B26D12A48142707FB0500013500F0E2
:1011100013FA052DF6D1274F274D384600F00CFA6B
:10112000284600F009FA254800F006FA244800F0A5
:1011300003FA244800F000FA2349244A0F6015609E
:1011400007E0234A106820B91968CA6AB24298BFFA
:101150001C60E36A1F4C204A20681168834288BFE4
:1011600023604C1C14601D4A0124116804FA03F02A
:10117000014311600E4A142000FB0320414600F099
:10118000E9F900F061FA124B196831B107480268B9
:10119000D36AB34201D200F039FA2046BDE8F88F95
:1011A0004FF0FF30BDE8F88FD8AA002098AA0020A1
:1011B0002CAA0020C0AA002018AA00209CAA002067
:1011C00004AA0020E4A90020F8A90020B4AA002065
:1011D000FCA90020DCAA0020BCAA0020B8AA00209C
:1011E00030B585B0002400940194029403940B4818
:1011F0000B494FF480722346FFF728FF012805466C
:101200000AD100F00BFA074B07481D60046005B0D7
:10121000BDE8304000F05CBA05B030BD05140108EF
:10122000A49F0108FCA90020B0AA0020024B1A6864
:10123000501C1860704700BF90AA002010B500F045
:10124000F5F9034B1C6800F0FFF9204610BD00BF04
:10125000B0AA002038B5314B186800284FD130486B
:1012600001684A1C02600368ABB92E4B2E4A19680C
:101270001068186011602D4A1168481C10601A68C7
:101280002B48116811B94FF0FF3303E01B68DA688F
:10129000D1684B6803602248254902680B689A426E
:1012A00033D320480268116821B921484FF0FF313B
:1012B00001602AE004681A4AE368DC681168606823
:1012C000814202D21A4B18601FE0251D284600F00B
:1012D00066F9A36A1BB104F1180000F060F9154A21
:1012E000E36A1068012101FA03F101431160124A17
:1012F000142000FB0320294600F02CF9D1E70F4908
:101300000A68531C0B60FFF70DFD0C4A13681BB9EC
:10131000BDE83840FFF706BD38BD00BF90AA0020E9
:10132000B0AA0020F8A90020B4AA002094AA0020A6
:1013300010000020B8AA00202CAA0020E0A900205C
:1013400070B500F073F9274B1A68501E18601D68BD
:101350000DB1002441E024490C68002CF9D0234B46
:101360001A6802B3DE68F468261D04F1180000F064
:1013700016F9304600F013F91D4AE36A106801219E
:1013800001FA03F1014311601A4A142000FB032003
:10139000314600F0DFF8184BE46A1968C86A8442E5
:1013A00028BF0125DBE71548016841B1134C2268CD
:1013B0003AB1FFF74FFF23685A1E2260F6E7012D6E
:1013C00006D10F4900200860012400F01FF904E055
:1013D0000B4C2368012BBCD1F3E700F035F9204614
:1013E00070BD00BF90AA0020D8AA00209CAA0020AF
:1013F000B8AA00202CAA002098AA0020E0A900206A
:10140000D4AA002070B5154C2368F3B1144DFFF732
:101410000DFF2E68FFF794FF002EF4D000F006F9C0
:10142000EA68D568281D00F0BAF80E4B1868411E0E
:1014300019602668721E226000F006F9286B00F021
:101440009BF9284600F098F9DDE707480168012973
:1014500001D900F0DBF8FFF771FCD4E700AA002007
:1014600004AA0020D8AA00202CAA002038B50C46D7
:101470000546FFF7DBFE184A2B68116899421C44A9
:1014800002D29C4208D201E09C4207D310688442F9
:1014900094BF0020012002E0002000E001202C6029
:1014A00090B10E4D2B68181D00F079F848B90C4B1F
:1014B00019682A68D26A012000FA02F221EA0201C0
:1014C00019602046FFF79AFDFFF73AFF18B9BDE80B
:1014D000384000F09BB838BDB0AA002098AA002080
:1014E000B8AA00200F4B186810B101220E4B16E06D
:1014F0000E490A68B2FA82F30D4AD8B21421C0F13B
:101500001F0301FB032000F1080143685A68094BDF
:1015100042608A4204BF526842604068C2681A60F2
:10152000704700BF90AA0020D4AA0020B8AA0020CB
:101530002CAA002098AA002000F108034FF0FF32E7
:10154000002182604360C360036101607047002333
:101550000361704743685A688B604A605A689160BB
:1015600059604160086101684B1C036070470A685C
:10157000531C10B501D1036907E000F108035C6852
:101580002468944201D85B68F9E75A680861916061
:101590004A6059608B6001684B1C036010BD436852
:1015A00082689A608268536003695968814208BF03
:1015B0005A60002202611868411E1960186870475D
:1015C00003480068006880F3088862B600DF00BF47
:1015D00008ED00E04FF0807300E90A00002340F8B6
:1015E0000C3C40F8202C403870470000064B19682E
:1015F0000868B0E8F00F80F309884FF0000080F32E
:1016000011884EF00D0E704798AA0020024B4FF043
:1016100080521A60704700BF04ED00E0EFF31180C4
:101620004FF0BF0181F311887047002008B5FFF724
:10163000F5FF024B1A68501C186008BD140000200A
:1016400080F3118870470000034B18680138186058
:1016500008B9FFF7F5BF704714000020EFF30980C9
:101660000C4B1A6820E9F00F10602DE908404FF08C
:10167000BF0080F31188FFF735FF4FF0000080F3C3
:101680001188BDE8084019680868B0E8F00F80F3D9
:101690000988704798AA002008B5064B4FF0805281
:1016A0001A60FFF7BBFFFFF7D5FD0020BDE808403B
:1016B000FFF7C6BF04ED00E0034B044A07201A60A1
:1016C00043F8040C704700BF14E000E03F900200B4
:1016D000094B1A6842F47F0010B51860196841F090
:1016E0007F441C60FFF7E8FF044B00241C60FFF7F9
:1016F00067FF204610BD00BF20ED00E01400002071
:1017000030B5094A0C2148431318DC889D8801FB39
:101710000424A5809D88DC8801FB0521CC801B88E2
:1017200059044B0C135230BDF2B300202DE9F041A7
:101730000C25104C05FB00F7E6198046308805FBA8
:101740000043B3F90010002912DAFFF7D9FF3088FF
:1017500005FB004213885904480C05FB0042A2F81F
:101760000280338805FB034529884804420CE25374
:10177000BDE8F081F2B30020F8B50746002832D06A
:10178000194C0C253F1BFFF751FDB7FBF5F086B256
:1017900037466F433046FFF7C9FFE319598869435D
:1017A000625E002A0BDA1A886FEA42406FEA504202
:1017B000625259881B8805FB034461800FE0A088B2
:1017C00081B205FB01450022EE8098809A71DA71A2
:1017D000A6801B886FEA43406FEA5041E153BDE8A1
:1017E000F840FFF7ADBDF8BDF2B30020F8B50446F0
:1017F000002800F08380FFF719FD082C07D9A4F119
:1018000009010C23B1FBF3F0821C91B200E001212D
:101810003B4CA28847F6FF7614460020384B0C2537
:1018200005FB023EBEF804706FB1BEF800506B04B9
:10183000C2EB534080B2884203D3B0423CBF14464F
:1018400006463A46EAE747F6FF77BE4208BF144627
:1018500005FB043218BF304617887A04A446570C9B
:10186000E2B1884203D12046FFF74AFF3EE0401A2A
:1018700014FA80F005FB00F299189F524C8084B254
:1018800005FB0CF01A5A51044A0C05FB02356FEAAD
:1018900044416FEA51426C801A5227E06018B0F55B
:1018A000557F07DB2246174800F03EFEFFF748FD54
:1018B0003846F8BD2CB901255C705C711D701D7136
:1018C0002C460F4B0C2000FB04F55A196118D688E2
:1018D00000FB06370E46B9801768414358185F5021
:1018E00051684160926882605E534480FFF728FD32
:1018F000034B0C2000FB0434201DF8BDF8BD00BFD5
:10190000F2B30020CEA00108FEE70000684620F0F8
:1019100007018D4601B500230A4A0B4998188842F1
:1019200004D20A49585898500433F5E7084B094A3D
:10193000934203D2002043F8040BF8E7FFF77EF947
:10194000FEE700BF00000020D0000020C0B6010864
:10195000D0000020E8E5002070470000F8B5002125
:101960000124214B0A4620461C7002F06FF82146E4
:101970002046002202F06AF822462046002102F0AA
:1019800065F820462146224602F060F817480478A0
:101990000023A3420CDA1648164A1749C65CD55CE8
:1019A000CF5C7D403543C554C85CD0540133F0E76B
:1019B00012490A6802B19047114B187898B1114941
:1019C0000A7882B10948531E00780B7000238342C5
:1019D00009DA0849064ACC5CD55C6C40CC5400213D
:1019E000D1540133F3E7F8BDE6AA0020E5AA0020B0
:1019F000EEDB00201EDC00200EDC0020E0AA002030
:101A0000E4AA0020E7AA002010B500282ED1194B27
:101A10001949186010220A70034618481849002412
:101A2000C4541848FF22CA54C254174AD45401332C
:101A3000102BF2D115481649047001200C70024693
:101A4000214602F003F801200246014601F0FEFFA4
:101A50000221012001F0BCFE06220120032102F038
:101A600057F80C4B01221A70204610BD4FF0FF3082
:101A700010BD00BFE0AA0020E5AA0020FEDB002088
:101A80001EDC00200EDC0020EEDB0020E7AA002098
:101A9000E4AA0020E6AA0020014B1878704700BF96
:101AA000E5AA0020024B03481A7802700020704714
:101AB000E4AA0020E7AA002037B5174D2B7823B3FE
:101AC00016490A7822B3164B002418600C7022467F
:101AD0002146012001F0BAFF01200146224601F013
:101AE000B5FF01202146024601F0B0FF012001466A
:101AF000024601F0ABFF0B482B7800900A490B4AD5
:101B0000012002F0B9F9204604E04FF0FF3001E077
:101B10006FF001003EBD00BFE5AA0020E6AA00204C
:101B2000E0AA00205D190108FEDB00200EDC002089
:101B300050B90346064AFF21D15406490020C85433
:101B40000133102BF6D170474FF0FF30704700BFC4
:101B50001EDC0020EEDB002070B504460D46FFF7CA
:101B60009BFF84420BD201F0E5FD064B1E5D1A5D22
:101B70002E4022EA05051D5501F0F0FD00E000268B
:101B8000304670BDEEDB00202DE9F8430746FFF735
:101B900083FF064620B31FB30024B4421DDA20465B
:101BA000FF21FFF7D9FF804608B90134F5E74FEA76
:101BB000C409002548FA05F3DB070AD50A48015D88
:101BC00041FA05F105EB090001F00101B847FFF703
:101BD00069FF0135082DEDD1E7E70020BDE8F88366
:101BE0004FF0FF30BDE8F8831EDC002038B9034613
:101BF000044A0020D0540133102BF9D170474FF024
:101C0000FF307047FEDB002060BB184B184913F80B
:101C100020206FF3070203F8202011F8303043F042
:101C20000F026FF3041201F8302001EBC001013004
:101C30004B788A786FF307034B70CB786FF307020A
:101C40008A7003F0F0026FF307120B79CA704A79B9
:101C50006FF307036FF3030240280B714A71D4D16D
:101C6000002070474FF0FF30704700BF30DC00208D
:101C700030DD00202DE9F74F0027DFF8549219F8E6
:101C800027304FEA870B0BEB0908002B00F012817D
:101C90008C4DFE007419A07808B1411EA17098F80F
:101CA000022092B398F8013016F805C002F1FF3A0D
:101CB0005A09032002F0060300FA03F0C1B260469D
:101CC0006CF3830070555FFA8AFA7F4810F80A00B7
:101CD00001421AD0504601920093FFF73DFF019A4E
:101CE000009B90B1794911F80A0040FA03F303F020
:101CF0000301D207CBB204D54A0002F0020040EA49
:101D00005303A95D63F301017155705DC0F3810256
:101D100000F003039A4200F0CD8000F00F0101298A
:101D20001BF8093002D113F0100F0DE0072902D182
:101D300013F0200F08E00E2902D113F0400F03E04A
:101D4000082955D113F0800F00F0B48000F0100284
:101D5000D0B218B9A178E02900F2AC80FF2B08D1ED
:101D6000725DE37802F00F0003F00F01884200F08B
:101D7000A180725D42F0100373552079A1780A1A90
:101D8000142A01DD1430A07098F8013013F003001C
:101D900012D0022820D1C3F38203A07894F9012045
:101DA000C3F10701084108BF0120121A6FF0450373
:101DB0009A42B8BF1A4611E06179C3F3820201F07A
:101DC0000F00D343C11802D56078421E6270637958
:101DD00061F30303637102E061784A1E6270A178C7
:101DE000E3782171FF20A070725D62F3030360E06D
:101DF000022902D113F0010F0DE00B2902D113F0DB
:101E0000020F08E00D2902D113F0040F03E00429AA
:101E100050D113F0080F4DD000F01000C2B212B133
:101E2000A178E02946D8FF2B06D1735DE07803F056
:101E30000F02B2EB101F3DD0A95D6FF30411715575
:101E40002379A078C21A142A01DD1433A37098F8FC
:101E5000011011F0030310D0022B1FD1A07894F9C8
:101E60000120C1F38201C1F10703184108BF01201D
:101E70001218462AA8BF462212E06379C1F38201F4
:101E80004A1C03F00F0083180F2B02DD6078411C01
:101E90006170627963F30302627102E06078421C50
:101EA0006270A378FF202371A070715DE37861F305
:101EB0000713E3700137402F7FF4DFAE0020BDE849
:101EC000FE8F00BF30DD0020EEDB00201EDC002096
:101ED00030DC002070B50646C0B1002401F02AFCB9
:101EE0000C4B03EBC40045784DB12A466FF3070253
:101EF000427001F033FC204669B2B04701E001F0C6
:101F00002DFC0134402CE9D1002070BD4FF0FF3092
:101F100070BD00BF30DD0020104A114B11685068C1
:101F2000128919600F4958601A810878422813D124
:101F30000D4A0E481178197002780D495A700878C8
:101F40000C4A98701178064AFF2908BF4FF4807137
:101F50009980094B1878D0800020704764A101084F
:101F600032DF0020C03F0008C13F0008C23F000828
:101F7000C33F0008C43F0008C53F0008024B93F967
:101F80000000C00F704700BF32DF0020014B187007
:101F900000207047F4AA002010B50B4B0B4C1880A2
:101FA0000B4AA388118013B1DAB2A37901E00823A8
:101FB0000622084C42432280074A4B431380BDE867
:101FC000104006F0C9BA00BF3CDF0020E8AA00209C
:101FD00042DF002044DF002030DF0020024B034AB4
:101FE0001880118006F04EBA44DF002030DF002058
:101FF0000023C15C034A99540133042BF9D100201A
:10200000704700BF3EDF00208278074B111D421849
:1020100001781A604278C078998001211881DA80AD
:1020200099720020704700BFE8AA002006F086B928
:1020300013B50446F0B9FFF76FFF1048104B016865
:102040009C8001A80191FFF7D3FF4CF2503002F0C1
:1020500053FD204605F0C8FF00280DDBFFF7E6FF23
:1020600021462046FFF798FF20462146FFF7B6FF9E
:10207000204601E04FF0FF301CBD00BFF0A001087A
:10208000E8AA002030B5154B93F90010002985B05F
:10209000054619DA124B9A884FF0FF30E2B193E807
:1020A000070001AC84E80700DA881B89ADF80A2034
:1020B000D108594305FB01000190ADF80C3094E8BC
:1020C000070006F075FA01E005F094FE002803DB36
:1020D000044B1A88511C198005B030BD32DF002036
